:020000040000FA
:1000000048070020850100008D0100006901000003
:1000100000000000000000000000000000000000E0
:100020000000000000000000000000009701000038
:1000300000000000000000009B010000F50500002A
:1000400015050000A1010000A3010000A5010000AA
:10005000A7010000A9010000AB010000210500007C
:1000600075050000B1010000390D0000BD0C000055
:10007000B7010000110E0000950D0000BD01000049
:10008000BF010000C1010000C3010000C501000064
:10009000C7010000C9010000CB010000CD01000034
:1000A000CF010000D1010000D3010000D501000004
:1000B000D7010000D9010000DB010000DD010000D4
:1000C000EE36E0FF00F002F800F03EF80CA030C879
:1000D000083824182D18A246671EAB4654465D46C4
:1000E000AC4201D100F030F87E460F3E0FCCB64650
:1000F0000126334200D0FB1AA246AB4633431847D1
:10010000740D0000940D0000103A02D378C878C135
:10011000FAD8520701D330C830C101D504680C6049
:10012000704700000023002400250026103A01D368
:1001300078C1FBD8520700D330C100D50B6070479F
:100140001FB51FBD10B510BD00F00CF91146FFF72B
:10015000F7FF00F053FD00F024F903B4FFF7F2FFBE
:1001600003BC00F033FD000004207146084202D0B9
:10017000EFF3098001E0EFF308807146004A104771
:10018000F90B00001948804719480047FEE7FEE7D1
:10019000FEE7FEE7FEE7FEE7FEE7FEE7FEE7FEE737
:1001A000FEE7FEE7FEE7FEE7FEE7FEE7FEE7FEE727
:1001B000FEE7FEE7FEE7FEE7FEE7FEE7FEE7FEE717
:1001C000FEE7FEE7FEE7FEE7FEE7FEE7FEE7FEE707
:1001D000FEE7FEE7FEE7FEE7FEE7FEE7FEE70000DC
:1001E00004480549054A064B704700001506000003
:1001F000C5000000480200204807002048030020F6
:1002000048030020002203098B422CD3030A8B42AF
:1002100011D300239C464EE003460B433CD40022FE
:1002200043088B4231D303098B421CD3030A8B4210
:1002300001D394463FE0C3098B4201D3CB01C01ADE
:10024000524183098B4201D38B01C01A52414309A9
:100250008B4201D34B01C01A524103098B4201D397
:100260000B01C01A5241C3088B4201D3CB00C01A04
:10027000524183088B4201D38B00C01A524143087C
:100280008B4201D34B00C01A5241411A00D20146A1
:100290005241104670475DE0CA0F00D0494203103A
:1002A00000D34042534000229C4603098B422DD389
:1002B000030A8B4212D3FC22890112BA030A8B4231
:1002C0000CD3890192118B4208D3890192118B4280
:1002D00004D389013AD0921100E08909C3098B4205
:1002E00001D3CB01C01A524183098B4201D38B0148
:1002F000C01A524143098B4201D34B01C01A5241EB
:1003000003098B4201D30B01C01A5241C3088B422F
:1003100001D3CB00C01A524183088B4201D38B001A
:10032000C01A5241D9D243088B4201D34B00C01AA4
:100330005241411A00D20146634652415B101046B9
:1003400001D34042002B00D54942704763465B1001
:1003500000D3404201B50020C046C04602BD7047F0
:1003600070477047754600F025F8AE4605006946AF
:100370005346C008C000854618B020B5FFF730FFCF
:1003800060BC00274908B6460026C0C5C0C5C0C528
:10039000C0C5C0C5C0C5C0C5C0C5403D49008D462B
:1003A000704710B50446C046C0462046FFF7D5FE4C
:1003B00010BD000000487047E801002000B5C020D3
:1003C0008078C008C0001349097801431248E03919
:1003D0000B0000F0E1FB0E0A0E12161A09090908BB
:1003E0000C1014181C090D4800BD0D4800BD0D4827
:1003F00000BD0D4800BD0D4800BD0D4800BD0D48B5
:1004000000BD0D4800BD0D4800BD0D4800BD0D48A4
:1004100000BD0000201C024040420F000090D003AD
:10042000006CDC020048E80100366E010024F40094
:10043000001BB70000127A00808D5B0000093D00B0
:10044000C0C62D0080841E00F0B59C46059B9646D4
:10045000069A120F042A0CD00125079A120F042ABB
:1004600009D00124002D08D00022224207D0002606
:100470000FE00025F1E70024F4E70122F5E7002C66
:1004800004D000222A4203D0012602E00122F9E72B
:10049000002601277F07C219117062469201E4000D
:1004A0002243AC002243740022437446224320249A
:1004B00022430901C9190A8401244C848B84CB840A
:1004C000069A8A62079ACA6207498A7E08231A43F3
:1004D0008A76064A9760C108535C4007400F844003
:1004E00023435354F0BD0000000802400050004078
:1004F00010B5074AF121D160054B10334407640F52
:100500000121A140C00819540020D06010BD000096
:100510000050004001490020087070470060004012
:10052000F8B50F4E002535770E4908880E4C002887
:100530000ED00E4A106803780D4F401C3B721060BD
:100540000888401E0880E07902214840E07105E0FB
:1005500000F07EFCE07904214840E0713577F8BD79
:1005600000600040C401002000000440DC010020C5
:10057000401704407CB5194D00242C701848418860
:100580004907490F00916A46117841811078002887
:1005900003D06846007800F059FC1248807A019038
:1005A000114A108811490B88984210D9684606797B
:1005B0000F4B18680670401C18600888401C0880A3
:1005C00010880988884206D100F041FC03E06846A3
:1005D000007900F03EFC2C707CBD000020600040E3
:1005E0004015044040170440C8010020C601002007
:1005F000E001002002480168491E016070470000C8
:10060000A001002000B5FFF7D9FE0149086000BD38
:10061000E401002000B514498020487112481A21D5
:10062000203801732B2141733C2181734D21C1730B
:100630000E4900204860FFF7C1FE0D490860002008
:100640000C49C04308600C4908600D490B4808601C
:1006500048608860C860086148618861C86109496C
:10066000AC20487000BD00002004024000B00140F2
:10067000E401002080E200E000E100E0C0C0C0C072
:1006800000E400E00010024038B56A4600F050FA7D
:10069000002816D10B4903248C80CA881209120144
:1006A000CA80CA886B461B781B071B0F1A43CA8077
:1006B0006B465A78044B52021A825A824A88224365
:1006C0004A8038BD2011044000130440F8B5844628
:1006D0002E48027804231A4302702D4A938803207F
:1006E00003439380D0802B48012303720373037468
:1006F000294C0020207220732074254C2320203C9C
:100700002082264820836726254F76023E82254890
:10071000057C1D43057407206081FF202330608223
:10072000214860837E82108918431081908A984303
:1007300090825089184350811C4A052050721C48F1
:100740004279022422434271194820304279FD2423
:1007500022404271164D40356A7D22406A75144A26
:100760006032557925405571104D172440352C7253
:1007700044791C4344715079984350716046FFF7A7
:1007800083FF044600F016F82046F8BD200402401E
:10079000201104402061004020600040978000004C
:1007A0000013044060040440974000002008044007
:1007B0000000044010B50D48028901210A4302815E
:1007C00042890A43428141880322114341800848FB
:1007D0000024047204730A2000F0ECF90B2000F0EE
:1007E000E9F904480472047310BD000020110440AC
:1007F000206000402061004038B56A4600F098F95A
:10080000002816D10B490C248C80CA88F0239A4307
:10081000CA80CA886B461B781B071B0E1A43CA8006
:100820006B465A78044B52029A80DA804A882243F7
:100830004A8038BD2011044040130440F8B5864674
:100840008C462E4801780423194301702C4A908865
:100850000C21084390802B48012505750576057706
:1008600029490020087508760877254C2748203C40
:10087000A08226487530A083672725487F0287809D
:1008800024490E7C1E430E740721E1812249E18236
:100890002249E183C780108918431081908A9843C8
:1008A00090825089184350811D490A2008701D48C4
:1008B0000178294301701B4820300178A943017059
:1008C000184940310A7CAA430A74164960310A78F3
:1008D000AA430A70124B02226033DA73037813437F
:1008E00003700878FD221040087061467046FFF7DB
:1008F00083FF044600F018F82046F8BD20040240AB
:10090000201104402061004020600040228000004F
:10091000401304406004044022810000974000001E
:10092000000804400000044010B50D48028904216D
:100930000A43028142890A43428141880C221143C1
:10094000418008480024047504760D2000F032F937
:100950000E2000F02FF904480475047610BD000045
:1009600020110440206000402061004038B56A46F4
:1009700000F0DEF8002816D10B4903248C80CA88C9
:1009800012091201CA80CA886B461B781B071B0F0D
:100990001A43CA806B465A78044B52021A815A8114
:1009A0004A8822434A8038BD6015044040170440FD
:1009B000F8B586468C4632480078082530492843E9
:1009C0000870304A90880321084390802E49012006
:1009D00008772D4801212030017001712B4900203A
:1009E00008772A49203108700871264B2320203BC4
:1009F0001882274818836726264F76023E812649AB
:100A00000C7C102004430C7407245C81FF212331EB
:100A10005982224959837E81118901231943118109
:100A2000918A994391825189194351811C4A062127
:100A3000D1721C4A5178294351701A4920314A78A1
:100A4000F7231A404A70174D40356A7C1A406A7481
:100A5000144A603255781D405570114B6033DC727A
:100A60004B7803434B705078EF210840507061463B
:100A70007046FFF77BFF044600F034F82046F8BDCF
:100A80002004024060150440006100400060004006
:100A90009780000040170440600404409740000025
:100AA00000080440000004403EB50024002912D094
:100AB0000A4A506201239381094A0023029200915D
:100AC00001901A4608210D20FFF7BEFC0D20FFF70C
:100AD0000FFD20463EBD8124FBE70000B801002049
:100AE0004817044010B50F48028901210A430281CA
:100AF00042890A43428141880322114341800A48C6
:100B000000240477084820300470072000F052F8D1
:100B1000082000F04FF8054804770448203004709E
:100B200010BD0000601504400060004000610040FE
:100B3000F7B582B0802001900025154F1548690057
:100B4000415A0298FFF75EFB00900224661C710078
:100B50000098FFF757FB0E49494248430399FFF7B6
:100B600051FBC019002800DA4042142806DA049824
:100B7000057004984470002005B0F0BDF4B2802CDC
:100B8000E4D36D1CEDB2102DD8D30198F4E700002A
:100B9000F0D8FFFF540E000030B47446641E257870
:100BA000641CAB4200D21D46635D5B00E31830BCA1
:100BB00018470000002805DBC106C90E0120884047
:100BC000014908607047000080E200E00449002805
:100BD00002D00448086201E001200862FEE700003C
:100BE00000800240AD0B0000024908600868002840
:100BF000FCD17047A0010020FEE70000FFF702FDD6
:100C0000264C7D21C9002068FFF7FCFA2449401ECC
:100C100088420CD82349486123480723C26912023D
:100C2000120A4D042A43C261002088610B61C8206A
:100C3000FFF7DAFFFFF7E6FC1C48C179F922114003
:100C4000C1711A4902206039C87118494039C87900
:100C50001040C871E1256D0229462068FFF736FD76
:100C6000802817D029462068FFF7E8FD802812D099
:100C700029462068FFF79CFE80280DD00C210C48E7
:100C8000FFF712FF6420FFF7AFFF0C210848FFF7C2
:100C90000BFFFEE7FEE7FEE7FEE70000E4010020B1
:100CA000FFFFFF0000E000E004ED00E06000044012
:100CB000A401002070477047704770471CB5184961
:100CC00000200873174841884907490F00916A4678
:100CD000117841811078002803D068460078FFF72A
:100CE000E9FF1148807C0190104B188810490A8850
:100CF000904210D9684604790E4A10680470401C6E
:100D000010600888401C088018880988884201D132
:100D1000FFF7D1FF1CBD68460079FFF7CEFF1CBD71
:100D2000206000400011044000130440BC0100207A
:100D3000BA010020D001002070B50F4900200872D0
:100D40000E4908880E4C00280ED00E4A1068037811
:100D50000D4D401C2B7410600888401E0880E079FF
:100D600002214840E07170BDFFF7A6FFE079042141
:100D70004840E07170BD000020600040B8010020D4
:100D800000000440CC01002000130440704770476D
:100D9000704770471CB51849002008761748C1886D
:100DA0004907490F00916A461178C18110780028DF
:100DB00003D068460078FFF7E9FF11488079019079
:100DC000104B188810490A88904210D96846047957
:100DD0000E4A10680470401C10600888401C08808F
:100DE00018880988884201D1FFF7D1FF1CBD6846E9
:100DF0000079FFF7CEFF1CBD2060004000110440C9
:100E000040130440C2010020C0010020D80100208E
:100E100010B50A49002008750949088800280AD039
:100E2000084A10680378084C401C23711060088839
:100E3000401E088010BDFFF7ABFF10BD20600040D2
:100E4000BE010020D40100204013044070477047C9
:100E500070477047010002000400080010002000E5
:100E60004000800000010002000400080010002083
:100E700000400080940E0000A00100204800000007
:100E800008010000DC0E0000E80100206005000001
:100E9000240100000000000048656C6C6F313233A3
:100EA00034353637383930000000000000000000CB
:100EB0000000000000000000000000000000000032
:100EC0000000000000000000000000000000000022
:0C0ED00000000000000000000000000016
:04000005000000C532
:00000001FF
