:020000040000FA
:1000000050060020950100009D01000079010000CC
:1000100000000000000000000000000000000000E0
:10002000000000000000000000000000A701000028
:100030000000000000000000AB0100003D0A0000CD
:10004000C5070000B1010000B3010000B5010000C8
:10005000B7010000B9010000BB010000D10700009A
:10006000E9080000C1010000911000001510000017
:10007000C7010000C9010000310F0000CD010000E0
:10008000CF010000D1010000D3010000D501000024
:10009000D7010000D9010000DB010000DD010000F4
:1000A000DF010000E1010000E3010000E5010000C4
:1000B000E7010000E9010000EB010000ED01000094
:1000C000EE36EAFF00F002F800F046F80CA030C867
:1000D000083824182D18A246671EAB4654465D46C4
:1000E000AC4201D100F038F87E460F3E0FCCB64648
:1000F0000126334200D0FB1AA246AB4633431847D1
:100100001410000034100000103A02D378C878C1EF
:10011000FAD8520701D330C830C101D504680C6049
:10012000704700000023002400250026103A01D368
:1001300078C1FBD8520700D330C100D50B6070479F
:1001400010B5782902D100F073F810BD002010BD61
:100150001FB51FBD10B510BD00F056FA1146FFF7D0
:10016000F7FF00F08FFE00F06EFA03B4FFF7F2FF26
:1001700003BC00F09BFD000004207146084202D041
:10018000EFF3098001E0EFF308807146004A104761
:100190001D0D00001948804719480047FEE7FEE79B
:1001A000FEE7FEE7FEE7FEE7FEE7FEE7FEE7FEE727
:1001B000FEE7FEE7FEE7FEE7FEE7FEE7FEE7FEE717
:1001C000FEE7FEE7FEE7FEE7FEE7FEE7FEE7FEE707
:1001D000FEE7FEE7FEE7FEE7FEE7FEE7FEE7FEE7F7
:1001E000FEE7FEE7FEE7FEE7FEE7FEE7FEE70000CC
:1001F00004480549054A064B704700005D0A0000A7
:10020000C5000000500100205006002050020020D0
:10021000500200200FB4054910B503AA029800F05F
:10022000C7F910BC08BC04B018470000E400002067
:1002300070B504460D4621461068C046C046218868
:10024000090502D50F4A7A4402E00E4A7A440E327A
:1002500023460021243305E006070009360F965D8A
:100260005E54491C0028F7D120780023000705D5EB
:10027000702D03D0002901D002231132204600F056
:100280003EF970BDA20E0000F3B50446002081B017
:1002900020622046E168884700287AD0252802D0CD
:1002A0006268A16871E0E16820460025884706463B
:1002B0000020E0610746A0612A2E0AD0304600F0F7
:1002C000EDFC002827D0B8000019303E0090866170
:1002D00019E00298BA00121902C8916102902046F2
:1002E000E1688847012F064617D1E06900281FDA28
:1002F000202085431CE000980A218069484300992A
:100300008019303888612046E1688847064600F049
:10031000C5FC0028EFD1012F0AD02E2E08D120468F
:10032000E16888470646202005437F1C022FC3DB77
:10033000A069002803DA4042A06101200543E807D4
:1003400001D010208543002E23D030464138192893
:1003500003D80120C00205432036204625603146DF
:10036000029A1546FFF7ECFE00280BD0012806D0B4
:10037000ED1DE808C000083002908AE709E02D1D55
:10038000029586E762683046A1689047206A401C63
:100390007EE7206AFEBD10B500F0A1FC10BD002272
:1003A00003098B422CD3030A8B4211D300239C46B2
:1003B0004EE003460B433CD4002243088B4231D32A
:1003C00003098B421CD3030A8B4201D394463FE0BE
:1003D000C3098B4201D3CB01C01A524183098B421E
:1003E00001D38B01C01A524143098B4201D34B0107
:1003F000C01A524103098B4201D30B01C01A52416A
:10040000C3088B4201D3CB00C01A524183088B42F0
:1004100001D38B00C01A524143088B4201D34B00D9
:10042000C01A5241411A00D201465241104670474B
:100430005DE0CA0F00D04942031000D34042534050
:1004400000229C4603098B422DD3030A8B4212D310
:10045000FC22890112BA030A8B420CD38901921142
:100460008B4208D3890192118B4204D389013AD07F
:10047000921100E08909C3098B4201D3CB01C01A54
:10048000524183098B4201D38B01C01A5241430967
:100490008B4201D34B01C01A524103098B4201D355
:1004A0000B01C01A5241C3088B4201D3CB00C01AC2
:1004B000524183088B4201D38B00C01A5241D9D2DA
:1004C00043088B4201D34B00C01A5241411A00D25B
:1004D0000146634652415B10104601D34042002B57
:1004E00000D54942704763465B1000D3404201B5D6
:1004F0000020C046C04602BD704770477047FFB538
:1005000004460D4681B0243000902168880604D549
:100510001022E0699143216000E00120A84201DD42
:10052000471B00E000270498A1697A191018081ADF
:10053000A0612078C00602D42046C046C0460026EE
:1005400008E003986268A168805D9047206A401CBB
:10055000761C206204988642F3DB2078C0060AD518
:100560002046C046C04606E06268A1683020904739
:10057000206A401C206238467F1E0028F4DC07E019
:1005800000986268A168405D9047206A401C206224
:1005900028466D1E0028F3DC2046C046C046207861
:1005A000000602D5022005B0F0BD0120FBE70000E7
:1005B000084B70B50D467B4400F013F804462846FE
:1005C00000F08AFB002802D00020C04370BD204606
:1005D00070BD00004907000001694A1C02610878EB
:1005E000704700B58FB00291002105910549019334
:1005F00079440391114604906846FFF745FE0FB019
:1006000000BD0000E5FFFFFF754600F025F8AE468F
:10061000050069465346C008C000854618B020B59D
:10062000FFF7E6FD60BC00274908B6460026C0C5B6
:10063000C0C5C0C5C0C5C0C5C0C5C0C5C0C5403D9A
:1006400049008D46704710B50446C046C046204656
:10065000FFF78BFD10BD000000487047F000002040
:1006600000B5C0208078C008C00013490978014354
:100670001248E0390B0000F0F7FA0E0A0E12161AB3
:10068000090909080C1014181C090D4800BD0D4873
:1006900000BD0D4800BD0D4800BD0D4800BD0D4812
:1006A00000BD0D4800BD0D4800BD0D4800BD0D4802
:1006B00000BD0D4800BD0000201C024040420F005C
:1006C0000090D003006CDC020048E80100366E01A7
:1006D0000024F400001BB70000127A00808D5B003C
:1006E00000093D00C0C62D0080841E000549012080
:1006F000087705498A8802438A80044900200877E0
:100700007047000000610040601504400060004038
:1007100018B51048002303740F4881880122114343
:1007200081804189914341810189914301810189FE
:10073000841521430181009304E000BF6B461978C2
:10074000491C0091694609780E29F6D9018911439F
:10075000018118BD040000206015044005490120F6
:1007600008700548818802221143818003490020D6
:100770000870704720610040601504402060004010
:1007800008B50F4881880222114381804189914335
:1007900041810189914301810189431519430181F7
:1007A0000021009104E000BF6B461978491C0091BC
:1007B000694609780E29F6D901891143018108BDDE
:1007C0006015044001490020087070470060004037
:1007D000F8B53C4801883C4A890706D511880029AC
:1007E00003D0022000F022FB67E00188C90706D091
:1007F0001188002903D0052000F018FB5DE0334E7E
:100800003178CB07324911D01088002809D0314BFC
:1008100018680478401C0C7218601088401E108004
:100820004BE0FFF775FF00F00DFB46E03278254DF9
:100830005307FF222035002B1BDBAB8801273B43EE
:10084000AB80038B9B049B0C0383038BBC03234370
:1008500003836888384368803078042318433070F5
:100860001D480088012802D16889B84368810A724E
:1008700023E01A4B1888184E3488A0421DD20C7AF7
:10088000174F38680470401C38601888401C188066
:100890001C883088401E844205D168894008400089
:1008A00068810A7209E018883388984204D1FFF7FA
:1008B0002FFF00F0BDFA00E00A720A490020087715
:1008C000F8BD000040150440520000201400002034
:1008D00040170440C00000205600002054000020B3
:1008E000C400002000600040F8B53C4948883C4BFB
:1008F000800706D51888002803D0022000F0ACFA43
:1009000067E04888C00706D01888002803D0052073
:1009100000F0A2FA5DE0334E3078334AC00711D0C0
:100920001888002809D0314908680478401C94725E
:1009300008601888401E18804BE0FFF721FF00F088
:1009400097FA46E03078FF23440724482030002CF3
:100950001BDB848802273C4384804C8BA404A40CBA
:100960004C834C8B7D032C434C834188394341801D
:1009700031780424214331701D490988012902D1AD
:100980004189B9434181937223E01A4C2188184E62
:100990003588A9421DD2957A174F39680D70491CC8
:1009A00039602188491C218025883188491E8D4263
:1009B00005D141890224A1434181937209E0208835
:1009C0003188884204D1FFF7DBFE00F047FA00E0EF
:1009D00093720A4900200870F8BD000040150440D9
:1009E000580000201500002040170440C8000020D7
:1009F0005C0000205A000020CC0000202060004055
:100A000010B50A49012008760948828808210A435E
:100A1000828042898A4342810649002008760E205E
:100A200000F030F904490420887510BD20610040B1
:100A3000201104402060004000000440024801688A
:100A4000491E0160704700000000002000B5FFF75C
:100A500007FE0149086000BDEC00002000B5144904
:100A60008020487112481A21203801732B214173CC
:100A70003C2181734D21C1730E4900204860FFF76E
:100A8000EFFD0D49086000200C49C04308600C4987
:100A900008600D490B48086048608860C8600861BC
:100AA00048618861C8610949AC20487000BD0000F8
:100AB0002004024000B00140EC00002080E200E091
:100AC00000E100E0C0C0C0C000E400E0001002404F
:100AD00038B56A4600F094F8002814D10A49032476
:100AE0008C80CA8812091201CA80CA886B461B789A
:100AF0001A43CA806B465A78044B52021A825A82B1
:100B00004A8822434A8038BD201104400013044023
:100B1000F8B584462648027804231A430270254A11
:100B20000320D080234B2220203B188222481883A8
:100B30006726224F76023E822148057C0124254308
:100B4000057407205881FF20233058821D485883A0
:100B50007E82108920431081908AA0439082508920
:100B600020435081184A05205072184842790223C8
:100B70001A434271154820304279FD231A404271D0
:100B8000124D40356A7D1A406A75104A60325579B7
:100B90001D4055710C4D172340352B72437923436B
:100BA00043715079A04350716046FFF791FFF8BD43
:100BB00020040240201104409780000000130440EC
:100BC00060040440974000002008044000000440F6
:100BD000034841888906FCD50248807C70470000A4
:100BE00000110440001304400349087403480188BD
:100BF0004906890FFBD170470013044000110440DF
:100C0000F7B582B0802001900025154F1548690086
:100C1000415A0298FFF7C3FB00900224661C710042
:100C20000098FFF7BCFB0E49494248430399FFF780
:100C3000B6FBC019002800DA4042142806DA0498EE
:100C4000057004984470002005B0F0BDF4B2802C0B
:100C5000E4D36D1CEDB2102DD8D30198F4E7000059
:100C6000F0D8FFFFCC10000030B47446641E257825
:100C7000641CAB4200D21D46635D5B00E31830BCD0
:100C800018470000002805DBC106C90E0120884076
:100C9000014908607047000080E200E030380A280F
:100CA00001D201207047002070470000044900284D
:100CB00002D00448086201E001200862FEE700005B
:100CC00000800240AD0B000002490860086800285F
:100CD000FCD17047000000200020C043704710B5D1
:100CE000FFF776FF04460D2C04D02046FFF77CFF6B
:100CF000204610BD0D20FFF777FF0A20FFF774FF95
:100D0000F6E710B50446E0B2FFF76EFF0A2C02D1F9
:100D10000D20FFF769FF204610BD0000F3B585B038
:100D20000468416804918568C66807694169039150
:100D300081690291C069019013A0FFF76BFA214607
:100D400017A0FFF767FA19A00499FFF763FA29467D
:100D500019A0FFF75FFA31461AA0FFF75BFA394690
:100D60001BA0FFF757FA1DA00399FFF753FA20A025
:100D70000299FFF74FFA23A00199FFF74BFA26A03B
:100D80000699FFF747FAFEE75B48617264206661E7
:100D9000756C742068616E646C65725D0D0A00008C
:100DA0005230203D2025780D0A0000005231203DB0
:100DB0002025780D0A0000005232203D2025780DB4
:100DC0000A0000005233203D2025780D0A00000063
:100DD000523132203D2025780D0A000053746163A2
:100DE0006B6564204C52203D2025780D0A000000E0
:100DF000537461636B6564205043203D2025780D5A
:100E00000A000000537461636B65642050535220E4
:100E10003D2025780D0A000043757272656E7420BE
:100E20004C52203D2025780D0A000000704700003C
:100E300010B5034901204870FFF758FC10BD0000B1
:100E4000E000002010B5034901200870FFF74EFCB8
:100E500010BD0000E00000207047000010B50349FD
:100E60000120C870FFF77AFC10BD0000E0000020F0
:100E700010B5034901208870FFF770FC10BD000019
:100E8000E0000020FFF7E2FD154C7D21C90020683D
:100E9000FFF785FA1349401E88420CD81249486171
:100EA000124A0720D3691B021B0A85072B43D36113
:100EB00000228A610861C820FFF706FFFFF7C6FD20
:100EC0004B2109022068FFF723FE802806D008A0E6
:100ED000FFF7A0F90A48FFF75EFAFBE7FEE700001C
:100EE000EC000020FFFFFF0000E000E004ED00E068
:100EF00048656C6C6F2C20554152540A000000006C
:100F0000E80000207047000010B5FFF779FD0249A6
:100F10000020086010BD00009000002010B5FFF711
:100F20006FFD02490020086010BD00009400002001
:100F3000FEB52F4CE088C007C00F019069460879C4
:100F4000E0810879012809D02A490E882D4F2A4AC4
:100F50002A4D2B4B3868002E08D104E068460079F2
:100F6000FFF7D0FF3FE01E88012E1CD9002807D0D4
:100F700096790670401C38601888401E188001E081
:100F8000907900902868002807D00378401C93715E
:100F900028600888401E088025E0E08A400422D4AA
:100FA000FF2090711FE0198801290ED1E188890680
:100FB000FCD5002805D0917901701888401E188052
:100FC00001E090790090FFF79FFF286800280AD081
:100FD000E08A400402D5E08B400402D4E088400659
:100FE000FCD4FFF79BFF084900200876FEBD0000F7
:100FF00000110440360000204013044094000020FB
:1010000034000020900000202060004070477047AE
:10101000704770471CB5184900200873174841886D
:101020004907490F00916A461178418110780028DC
:1010300003D068460078FFF7E9FF1148807C0190F3
:10104000104B188810490A88904210D968460479D4
:101050000E4A10680470401C10600888401C08800C
:1010600018880988884201D1FFF7D1FF1CBD684666
:101070000079FFF7CEFF1CBD206000400011044046
:1010800000130440DE000020DC000020D800002017
:1010900010B50A49002008720949088800280AD0BA
:1010A000084A10680378084C401C237410600888B4
:1010B000401E088010BDFFF7ABFF10BD2060004050
:1010C000D4000020D00000200013044001000200E2
:1010D0000400080010002000400080000001000211
:1010E000000400080010002000400080303132333E
:1010F000343536373839414243444546403058004C
:10110000303132333435363738396162636465667D
:10111000403078003411000000000020F000000092
:101120000801000024120000F0000020600500000B
:101130002401000000000000FFFFFFFFFFFFFFFF92
:10114000FFFFFFFF000000000000000000000000A3
:10115000000000000000000000000000000000008F
:10116000000000000000000000000000000000007F
:10117000000000000000000000000000000000006F
:10118000000000000000000000000000000000005F
:10119000000000000000000000000000000000004F
:1011A000000000000000000000000000000000003F
:1011B000000000000000000000000000000000002F
:1011C000000000000000000000000000000000001F
:1011D000000000000000000000000000000000000F
:1011E00000000000000000000000000000000000FF
:1011F00000000000000000000000000000000000EF
:1012000000000000000000000000000000000000DE
:1012100000000000000000000000000000000000CE
:0412200000000000CA
:04000005000000C532
:00000001FF
